:020000040800F2
:10000000685D002029020008891D0008D51C000831
:10001000851D000821040008FD42000800000000C2
:100020000000000000000000000000009D1D00080E
:10003000A504000800000000991D0008A11D00088B
:10004000430200084302000843020008430200087C
:10005000430200084302000843020008430200086C
:10006000430200084302000843020008430200085C
:10007000430200084302000843020008430200084C
:10008000430200084302000843020008430200083C
:10009000430200084302000843020008430200082C
:1000A000430200084302000843020008430200081C
:1000B000430200084302000843020008430200080C
:1000C00043020008430200084302000843020008FC
:1000D00043020008430200084302000843020008EC
:1000E00043020008430200084302000843020008DC
:1000F00043020008430200084302000843020008CC
:1001000043020008430200084302000843020008BB
:1001100043020008430200084302000843020008AB
:10012000430200084302000843020008430200089B
:10013000430200084302000843020008430200088B
:100140004302000843020008430200088D1D000816
:10015000430200084302000843020008430200086B
:10016000430200084302000843020008430200085B
:100170004302000843020008430200080000000098
:10018000430200084302000800F002F800F03CF8C7
:100190000AA090E8000C82448344AAF10107DA45E2
:1001A00001D100F031F8AFF2090EBAE80F0013F0F8
:1001B000010F18BFFB1A43F00103184780410000EC
:1001C000A0410000103A24BF78C878C1FAD852077D
:1001D00024BF30C830C144BF04680C6070470000C1
:1001E0000023002400250026103A28BF78C1FBD840
:1001F000520728BF30C148BF0B6070471FB504F0DD
:1002000088F81FBD10B510BD00F0D0F81146FFF7FB
:10021000F5FF04F075F800F0EEF803B4FFF7F2FF15
:1002200003BC00F0F5F80000094880470948004782
:10023000FEE7FEE7FEE7FEE7FEE7FEE7FEE7FEE796
:10024000FEE7FEE704480549054A064B70470000F3
:10025000551E000889010008681D0020685D002007
:10026000683D0020683D002053EA020C00F06980E0
:100270002DE9F04B4FF00006002B1FBFB3FA83F5BA
:1002800003FA05F424FA05F65E4012BF1643B2FAEB
:1002900082F502FA05F4C5F120051EBF22FA05FC1D
:1002A00044EA0C04203556EA044C4FEA144418BFC3
:1002B000641C4FF000084FF00009904271EB030CF2
:1002C00039D3002919BFB1FA81F701FA07F6B0FA5C
:1002D00080F700FA07F6C7F120071EBF20FA07FCD7
:1002E00046EA0C062037B6FBF4FCA7EB0507103FE7
:1002F00007F01F0BCBF120062CFA06F60CFA0BFBCD
:1003000044BFB3460026202FA4BF5E464FF0000B2B
:100310005BEA060C08BF4FF0010B19EB0B0948EB29
:100320000608ABFB027C06FB02CC0BFB03CCC01B1C
:1003300071EB0C01C1E70B46024641464846BDE859
:10034000F08B13B5084318BF4FF0FF300146AFF3F1
:100350000080BDE81C4070474FF0000200B5134616
:1003600094469646203922BFA0E80C50A0E80C50D5
:10037000B1F12001BFF4F7AF090728BFA0E80C5086
:1003800048BF0CC05DF804EB890028BF40F8042B7F
:1003900008BF704748BF20F8022B11F0804F18BFEC
:1003A00000F8012B7047704770477047754600F0A2
:1003B0002BF8AE4605006946534620F007008546F7
:1003C00018B020B5FFF73EFFBDE820404FF0000613
:1003D0004FF000074FF000084FF0000BAC46ACE8C0
:1003E000C009ACE8C009ACE8C009ACE8C00921F01C
:1003F00007018D46704710B50446AFF300802046D4
:10040000BDE81040FFF709BF00487047F800002022
:1004100001491820ABBEFEE726000200704700002D
:10042000FEE70000002070470020704710B541F241
:100430007C54C2F2000440F67C51C2F20001204616
:10044000002201F0DFFE40F27C51C2F200012046A2
:1004500001F0CAFE002010BDB0B541F27C52C2F2DC
:100460000002D2F8BC320A88D3F81412044651B9FB
:1004700041F27C55C2F200052846214601F0C2FE39
:10048000284601F04DFF41F27C55C2F20005284696
:10049000214601F0A9FE284601F080FE0020B0BDF3
:1004A0000020704770470000EFF3108072B600BF65
:1004B000FEE70000B0B5044600F0EEF8054640F255
:1004C0000000C2F200000078611C18BF044400BFA5
:1004D00000F0E2F8401BA042FAD3B0BD2DE9F04F86
:1004E00082B000F13E4241F6004502F1FF77C4F2CE
:1004F000020508224FEAB726A84208BF0722072EA6
:1005000038BF4FEAB7224FF0010A002400274FF00E
:100510000008009208E000BF023708F10108202F10
:1005200004F1040400F0B4800E680AFA08F916EA2F
:10053000090FF1D0D1F804A00AF0030BABF10106CA
:10054000012E17D80322866802FA07FECA6826EA37
:100550000E06BA40324382604268CAF3001522EAAE
:10056000090205FA08F54FEA480C6FEA0E062A431D
:1005700042600BE00322BA40D643BBF1030FBC46F6
:1005800004D1BC464FF0030B22E000BFC2688D6867
:10059000324005FA0CF52A43BBF1020FC26017D1B5
:1005A0006FF0030202EA5802024404F01C030F2514
:1005B000D2F820E005FA03FA0D692EEA0A0E05FAD0
:1005C00003F343EA0E031362D1F804A00AF0030B0D
:1005D00002680BFA0CF332401A431AF4403F4FF012
:1005E000010A026098D0002243F644030192C4F24B
:1005F00002031A6843F6004E42F480421A601A68F9
:10060000C4F2010E02F480420192019A28F0030222
:100610004FF6084C7244CFF6FF7C52F80C3004F0D1
:100620000C060F25B540AB43009D05FA06F6334393
:1006300042F80C30DEF808204B6842EA090643F61F
:100640000C4CDD0258BF22EA0906CEF80860C4F25D
:10065000010CDCF800209D0242EA090658BF22EA9C
:100660000906CCF80060DEF804209D0342EA090682
:1006700058BF22EA0906CEF80460DEF80020DB034A
:1006800042EA090658BF22EA0906CEF8006043E7AD
:1006900002B0BDE8F08F000041F66450C2F20000E5
:1006A0000068704740F2000041F66451C2F2000059
:1006B000C2F2000100780A68104408607047000028
:1006C00080B543F60040C4F20200016841F40071B5
:1006D0000160016841F480610160016841F480714A
:1006E0000160032000F084F80F2000F005F800F00E
:1006F00027F8002080BD000070B540F20006C2F26D
:10070000000640F224013278C2F200014FF47A73FD
:100710000968B3FBF2F20446B1FBF2F1084601F0BE
:10072000C3FA0F2C4FF0010508D838B94FF0FF304D
:1007300021460022002500F02FF87460284670BD85
:1007400082B0002043F640010190C4F202014A68E1
:1007500042F480424A604A6802F480420192019A5F
:100760000090086840F080500860086800F08050F1
:100770000090009802B07047002848BF704700F012
:100780001F01012202FA01F14EF200124009CEF2DD
:10079000000242F82010704710B54EF60C5CCEF205
:1007A000000CDCF80030C3F3022E8EF00704042C9A
:1007B00028BF0424BEF103034FF0FF3E0EFA04F4F9
:1007C00038BF0023A14399400EFA03F39A43114323
:1007D00000F00F02043A624409010C3200F1604358
:1007E000B0F1FF3FC8BF03F56442117010BD0000B7
:1007F0004EF60C51CEF200010A684FF6FF031A4084
:1008000060F30A2242F0806040F0FD70086070479B
:100810007047000002680020516270472DE9F043E4
:10082000D0F80090D9F82400A1B1D9F82830B1F15E
:10083000010800EB13435DD0A8F10100C0B203280A
:1008400008F0030C0ED24FF0010E0027BCF1000F90
:1008500033D14FE040EA0240C9F828000020BDE84B
:10086000F08300BF08F0FC0E09F1F404002009F544
:10087000827500BF54F8107F064603EB174046F020
:100880000103DBB246F0020755F82330FFB255F8FA
:10089000277000EB134000EB174346F00300C0B293
:1008A00055F82010301DC7B2774503EB1143E1D155
:1008B00006F1050EBCF1000F1CD009EB8700D0F843
:1008C0000401BCF1010F03EB104313D05FFA8EF06B
:1008D00009EB8000D0F80401BCF1020F03EB1043D8
:1008E00008D00EF10100C0B209EB8000D0F804017D
:1008F00003EB104343EA024009EB8801C1F804010D
:100900000020BDE8F0830000D0F8080502F000B830
:1009100001EBC102D0F8083500EB8200C26C18462A
:1009200001F05EBF01EBC102D0F8083500EB820098
:10093000D0F88C22184601F0AFBF0000D0F80805AF
:1009400001F0E8BF10B50446080601F00F0000EB07
:10095000C00104EB810205D402F51F71002382F867
:100960007D3204E0012302F13C0182F83D3094F82D
:10097000BC240870012A04BF022010BD2068012297
:1009800084F8BC2402F08AFD002084F8BC0410BD69
:10099000B0B54268044601F00F00904284BF0120C8
:1009A000B0BD09060AD400EBC00104EB810202F5D8
:1009B0001F71002382F87D3209E000BF00EBC00107
:1009C00004EB8102012302F13C0182F83D3094F8EE
:1009D000BC240025012A8D70087004BF0220B0BD20
:1009E0002068012284F8BC2403F0B0F8284684F87B
:1009F000BC54B0BD01F00F0101EBC10100EB81005F
:100A0000D0F89C0270470000B0B50546080601F01A
:100A10000F0000EBC00105EB810C05D40CF51F7134
:100A200000248CF87D4204E001240CF13C018CF898
:100A30003D404C780870002CCA600B7118BF0881CB
:100A4000022B04BF0020487195F8BC04012804BFA4
:100A50000220B0BD2868012285F8BC2402F0D8FB32
:100A6000002085F8BC04B0BD80B501F00F0C0CEB84
:100A7000CC0100EB810ECEF894320023CEF89C32EC
:100A80008EF87D320369CEF88C22012B8EF87CC261
:100A900008BFCEF8902200680EF51F71DAB2BCF1E3
:100AA000000F03D003F09AF8002080BD02F0A2FFEF
:100AB000002080BDB0B50446406801F00F058542B6
:100AC00084BF0120B0BD08060AD401EBC10004EBCD
:100AD000800000F51F71002280F87D2209E000BF30
:100AE00005EBC50004EB8000012200F13C0180F819
:100AF0003D2094F8BC04012201288A700D7004BFC7
:100B00000220B0BD206884F8BC2403F047F81DB172
:100B1000002084F8BC04B0BD2068217C04F2C442EB
:100B200002F0E6FF002084F8BC04B0BD10B501F06F
:100B30000F0C0CEBCC0100EB810E714601F83CCFA1
:100B40008B6100230B62036901244C70012B0A6145
:100B500008BFCEF850200068DAB2BCF1000F03D015
:100B600003F03CF8002010BD02F044FF002010BD4F
:100B70002DE9F04F8BB005688246284603F028FA2D
:100B800010B10BB0BDE8F08FDAF8000003F04EFAB8
:100B90000028F6D0D5F80808C0F30D21DAF80000D7
:100BA000CAF8FC1403F042FA0146DAF8000089079B
:100BB00003D5416901F00201416105F5006103912E
:100BC00003F034FA0146DAF80000C90605953BD572
:100BD000816921F0100181612C6AC4F34340062829
:100BE00004F00F0518D0022827D147F6F07014EA58
:100BF000000622D005EBC5000AEB8007D7F88C125F
:100C000034090598224603F015FAD7F88C0200EB58
:100C10001610C7F88C0207E005980AF2C4410822B2
:100C200003F008FAC4F30A1405EBC5000AEB8000D0
:100C3000D0F89C122144C0F89C12DAF800008169B7
:100C400041F010018161059D03F0F0F90003CDF83A
:100C500028A040F1ED80DAF8000003F0C5F9002883
:100C600000F0E68006460AF2C4400AF527784FF401
:100C700030644FF0000B09901BE000BF28190221DF
:100C800081605FEA8A6042BF2819202181605FEAA3
:100C90008A40DDF828A042BF28194FF40051816036
:100CA0000BF1010B760804F1200408F1240800F090
:100CB000BF80F007F4D0DAF800005FFA8BF94946FC
:100CC00003F0ACF98246C00762D028190121816087
:100CD0000A9F38682118036C8A683F69012F29D15F
:100CE000170735D4970600F19B8012F0280F4FD1DB
:100CF00043F20B07C4F65477BB4202D312F400420E
:100D00002FD158F8042C0969BBF1000F6FF3DF41B4
:100D1000A2EB0101C8F8001035D10A9BD3F8942248
:100D2000002A00F08380D3F88C020844C3F88C02B8
:100D300029E000BF43F20B07C4F65477FF37BB42EC
:100D400016D110040DD4900644BF202088601AE00C
:100D500043F20B00C4F65470834219D312F40040DE
:100D600016D04FF4004088605FEA0A7013D437E071
:100D7000BBF1000F07D10A99D1F8941219B90021DB
:100D8000099A02F0B5FE0A984946FFF7CBFD00BF6D
:100D90005FEA0A7024D52819082181600A9843F275
:100DA0000B020068C4F65472056C20448168571E1B
:100DB000BD4205D911F400411CBF4FF400418160D0
:100DC0000A9800F087FCBD42059D09D90A98006980
:100DD000012805D10A98099A0068012102F088FECD
:100DE0005FEACA6042BF2819102181605FEA8A70F9
:100DF0007FF547AF6869000604D50399486840F459
:100E00008060486018F81D0C01287FF437AF00207F
:100E100008F81D0C0A98494600F046FB2EE700BF73
:100E2000202088605FEA0A70B5D4D9E70121A7E7DE
:100E3000DAF8000003F0FAF8039E400340F1DE8088
:100E4000DAF8000003F0C8F8002800F0D78005F5B4
:100E5000106104910AF2C4414FF0000B029104E0CA
:100E600040080BF1010B00F0C980C107F8D00690D3
:100E7000DAF800005FFA8BF1099103F0BDF8049FE6
:100E80000446C00728D00BF00F00716B012202FA54
:100E900000F021EA0000706307EB4B108260DAF883
:100EA0001000012814D10BEBCB000AEB8000D0E935
:100EB0001212BBF1000F1144C16409D1DAF85400D9
:100EC00030B9DAF80000029A012102F011FE00BFE9
:100ED00009995046FFF71CFD200742BF07EB4B1056
:100EE00008218160E00642BF07EB4B1010218160B2
:100EF000600642BF07EB4B1040218160A00715D56B
:100F00002846594602F0FAFF0BEBCB000AEB8000B3
:100F100010F83F1F012905D10021017009995046A1
:100F200000F0BEFA07EB4B10022181602006069804
:100F300096D50BEBCB010AEB8104A14659F8542F4F
:100F4000C84658F8087FBA428AD3DAF8005054F8F5
:100F5000483FD11B994288BF1946089505EB4B1CA9
:100F6000DCF818590331ADB2B5EB910F28BFBA4286
:100F700004D8059DBA423FF673AF33E004F1040A8A
:100F8000DAF800100CF51065079400BF0A98D41B1E
:100F90009C42067C88BF1C46DDE90802A3B200968D
:100FA00003F072F9DAF80000E31C0119D8F8000028
:100FB000CAF800100719C8F80070AA6996B2D9F8E3
:100FC0000020B6EB930F28BFBA4203D907980368F5
:100FD000DCE700BFDDF828A0039EDDE90550BA423A
:100FE0003FF63EAF089F0BF00F02D7F834180123ED
:100FF00003FA02F29143C7F8341831E7DAF8000037
:1010000003F014F8002823D4DAF8000003F00EF8F7
:1010100000053AD4DAF8000003F008F8C00444D51B
:10102000D5F80408102120F00100C5F80408DAF80A
:10103000000002F063FFDAF80400002800F0F580F9
:10104000411E032900F0030C32D200219CE000BFB6
:10105000706820F0010070609AF8F404012807D14C
:1010600000208AF8F40450460021FFF7D1FB02E08B
:10107000504600F013FBDAF80000416901F000412E
:10108000416102F0D3FF0005C4D5B068C00702D0AB
:10109000504600F047FBDAF80000416901F40061B6
:1010A000416102F0C3FFC004BAD4DAF80000EAE0FC
:1010B00020F0030E05F536634FF6A0564FF6C055E7
:1010C0004FF6E0544FF6006000214FF67F37CFF621
:1010D000FF76CFF6FF75CFF6FF74CFF6FF7000BF37
:1010E000A3F5187297609A59043122F400129A51AC
:1010F00043F8587C53F8602C8E4522F4001243F8D4
:10110000602C53F8602C42F0006243F8602CA3F589
:10111000107297605A5922F400125A5143F8387CE1
:1011200053F8402C22F4001243F8402C53F8402C82
:1011300042F0006243F8402CA3F5087297601A59F8
:1011400022F400121A5143F8187C53F8202C22F490
:10115000001243F8202C53F8202C42F0006243F890
:10116000202CA3F5007297601A5822F400121A502E
:101170009F601A6822F400121A601A6842F0006236
:101180001A6003F18003ABD1059D039EBCF1000FF3
:101190004BD005F5106000EB41124FF67F334F0145
:1011A0009360C65905F5306226F40016C65102EB6D
:1011B0004116B360D659BCF1010F26F40016D65182
:1011C000D65946F00066D651039E2ED04F1C00EB38
:1011D00047157E01AB60855902EB471725F40015D2
:1011E0008551BB609359BCF1020F23F40013935156
:1011F000935943F000639351039E16D0023100EBE4
:1012000041174FF67F364B01BE60C75827F40017D1
:10121000C75002EB41108660039ED05820F40010A6
:10122000D050D05840F00060D050F06940F001102C
:10123000F061DAF8300048B1D6F8840040F00B00D5
:10124000C6F8840006F1440007E000BF706942F26E
:101250002B010843706106F1100001680AF2C442D4
:1012600041F00B010160306820F4FE603060DAF874
:1012700000009AF8101002F03BFCDAF80000416917
:1012800001F48051416102F0D1FE0146DAF800001C
:1012900089041AD502F002F8DAF8000002F08AFE9A
:1012A000DAF80040CAF80C0000F006FB9AF80C20AF
:1012B0000146204602F058FF504600F0D9F9DAF80E
:1012C0000000416901F40051416102F0AFFE0007E6
:1012D00006D4DAF8000002F0A9FE00060DD435E0CD
:1012E000504600F0DFF9DAF80000416901F008012A
:1012F000416102F09BFE000628D50599886920F01F
:1013000080008861DAF8040002281FD30AF2A324BF
:10131000012504E00135854204F1240416D2217828
:101320000129F7D105F00F0000EBC0000AEB8002A5
:101330002806DAF8000002F13C0158BF02F51F71DF
:1013400002F04CFDDAF80400E4E700BFDAF8000030
:1013500002F06CFEC0024FD4DAF8000002F066FE24
:10136000059D800240F17E80DAF8040002282AD32D
:10137000013805F532610AF52972012306E000BF44
:10138000013801F1200102F124021CD00F68167807
:10139000012EF5D1B7F1FF3FF2DCDAF8FC6407F477
:1013A000803706F00106B742EAD102F8013CAF6986
:1013B00047F08007AF616F693F06E1D40399486841
:1013C00040F400704860DAF80000416901F400114F
:1013D000416102F02BFE40004AD55046FFF794FAD7
:1013E000DAF80000416901F08041416102F01EFE1F
:1013F00040077FF5C6AB42E0DAF80400022825D3A7
:1014000005990AF1640501F512640126012705E03A
:1014100001372034874205F1240517D221682A7844
:10142000012AF5D1B1F1FF3FF2DC07F00F0000EB2C
:10143000C0000AEB8001DAF800003C3105F8016CCD
:1014400002F0CCFCDAF80400E2E700BFDAF80000B2
:10145000416901F48011416102F0E8FD059D8002BF
:101460003FF582AFDAF8000002F0E0FD4000B4D4AE
:10147000DAF8000002F0DAFD40077FF582ABDAF817
:1014800000004468610704D55046FFF757FADAF8C0
:1014900000004168214341600BB0BDE8F08F0000BF
:1014A000D0F8080501F092BAD0F8080501F0A2BA08
:1014B0002DE9F04F8BB0002800F0868004460568C7
:1014C00090F8BD0428B9002084F8BC04204600F040
:1014D0008FF8032084F8BD04E86BC0055CBF0020D2
:1014E0002061206802F07EFA206804F11C0A0A904C
:1014F000D4E90C5004F1040E9AE8C0079EE80E5897
:10150000CDE9085003A880E8C0030A988DE8005888
:10151000CDF81CA001F0D2FE002852D12068002195
:10152000002502F0DDFD616861B301200023002287
:1015300003EBC30304EB830787F83C20D3B20132EB
:10154000A7F84430D3B2994287F83D0087F840505D
:10155000C7E912557D65EBD800200023002200BFAB
:1015600003EBC30304EB830787F87C220132D3B279
:10157000994287F87D0287F88002C7E9A200C7F880
:101580009402EDD8A06822680A90D4E90C5004F1C6
:10159000140E04F1240AD4E903379EE840589AE86F
:1015A0000007CDE9085002A880E8005810460A9AC2
:1015B000CDE90076CDE90589CDF81CA001F0D0FF7A
:1015C00040B1022084F8BD04012528460BB0BDE8D7
:1015D000F08F00BF0025012084F8385084F8BD0446
:1015E000206801F0ADFF28460BB0BDE8F08F000089
:1015F000B0B586B00068B0F1A04F01D006B0B0BD64
:10160000002543F630040195C4F20204206801A9C4
:1016100040F001002060206800F001000190019876
:101620004FF4C05001900220CDE902050320049040
:101630000A2005900020C4F20200FEF74FFF606808
:10164000002140F08000606000956069002240F455
:1016500080406061606900F4804000900098432001
:10166000FFF79AF84320FFF787F806B0B0BD0000F7
:1016700010B50446C06828B1022818BFFEF714FF51
:10168000012100E00021D4F8080501F039FAD4F86E
:101690000805BDE8104001F0E7B90000D0F80805E2
:1016A00001F016BAD0F8080501F01CBA10B50446CE
:1016B00090F8BC04012804BF022010BD012084F86A
:1016C000BC0484F83810206802F03CFD002084F847
:1016D000BC0410BDD0F8082500F2C441104601F04A
:1016E00025BA000010B5044690F8BC04012804BFD8
:1016F000022010BDA16A20680122012984F8BC24BF
:1017000006D1A169012903D0816B41F48031816345
:1017100002F0ECFB206801F003FF002084F8BC0419
:1017200010BD000010B50446D0F8080501F054FAC9
:101730002068D0F8001E41F00101C0F8001E206AA8
:10174000002808BF10BD4EF61050CEF20000016810
:1017500041F00601016010BD2DE9F041002800F0C4
:101760008B8043F60808C4F202080446D8F8F80350
:101770000D4600F00700884207D288F8F853D8F8E1
:10178000F80300F00700A84276D12068810717D53A
:10179000410705D5D8F8001041F4E051C8F8001011
:1017A000010705D5D8F8001041F46041C8F80010D1
:1017B000D8F80010A26821F0F0011143C8F8001019
:1017C000C0073FD1D8F8F80300F00700A84207D9B6
:1017D00088F8F853D8F8F80300F00700A8424BD176
:1017E0002068410707D5D8F80010E26821F4E051DD
:1017F0001143C8F80010000708D5D8F80000216987
:1018000020F4604040EAC100C8F8000000F05AF837
:10181000D8F8001044F22C32C1F30311C0F60002D4
:10182000515C40F2240220FA01F140F20400C2F2BD
:1018300000000068C2F200021160FEF75DFF0020A8
:10184000BDE8F0816068811E022907D258F8081CA3
:1018500089015CBF0120BDE8F08111E0012807D1BA
:1018600058F8081C89035CBF0120BDE8F08107E03F
:1018700058F8081C890703D40120BDE8F08100BF97
:10188000D8F8001021F003010843C8F80000FEF763
:1018900003FF064641F28837D8F80000616800F07F
:1018A0000C00B0EB810F8DD0FEF7F6FE801BB84226
:1018B000F2D90320BDE8F08140F22400C2F200001A
:1018C0000068704710B543F60404C4F2020460686F
:1018D00000F00C0008280BD0042819BF42F2004089
:1018E000C0F2F40041F60030C0F2B70010BD00BFF6
:1018F000206821682368490241F60031C0F2B7012F
:1019000000F03F02C3F388105CBF42F20041C0F216
:10191000F401A1FB00010023FEF7A6FC21680222CE
:10192000C1F3014102EB4101B0FBF1F010BD000039
:101930002DE9F04182B000286AD00446007843F6D1
:101940000006C007C4F202060BD0B06800F00C001D
:10195000042840F0A1803068800302D56068002828
:1019600056D0207880071AD5B06810F00C0F09D037
:10197000B06800F00C00082840F0A88070684002B1
:1019800000F1A4803068800702D5E06801283FD1CB
:101990003068216920F0F80040EAC100306020780A
:1019A000000739D4207840074ED4A5695DB3B068EC
:1019B00000F00C00082840F0BD80012D28D0706890
:1019C000E16900F480028A4222D1216A00F03F02DC
:1019D0008A421DD147F6C071626A0140B1EB821F95
:1019E00016D1A26A0023CFF6FF7303EBC23200F4D4
:1019F00040316FF30F0291420AD1E16A00F070604A
:101A0000B0EB016F04D1002002B0BDE8F08100BF4F
:101A1000012002B0BDE8F0816069002840F20000BA
:101A2000C4F2472076D00121C0F8801EFEF734FEB4
:101A3000054600BF706F8007B4D4FEF72DFE401B33
:101A40000228F7D9DDE000BF306C10F080580AD1D1
:101A500000200190306C40F080503064306C00F019
:101A600080500190019847F20007C4F200073868DF
:101A7000C00541D4386840F480703860FEF70CFE31
:101A8000054600BF3868C00536D4FEF705FE401B8A
:101A90000228F7D9B5E000BFB06800F00C000828B4
:101AA00003D1706840023FF556AF6068B0F5803FE3
:101AB00007D0B0F5A02F40F08D80306840F4802032
:101AC0003060306840F4803030608DE0E06800289D
:101AD00052D00020C4F2472001210160FEF7DCFD56
:101AE000054600BF306880073FF552AFFEF7D4FDD2
:101AF000401B0228F6D984E0A068012805D00528FB
:101B00004ED1306F40F004003067306F40F001007C
:101B100030674FE00021C0F8801EFEF7BDFD05468E
:101B2000706F80077FF53EAFFEF7B6FD401B0228C1
:101B3000F6D966E00027C4F2472700203866FEF792
:101B4000ABFD022D05460BD1306880015ED5FEF756
:101B5000A3FD401B02284FF00300F5D954E700BF56
:101B6000306880017FF54FAFFEF796FD401B0228DD
:101B70004FF00300F4D947E70020C4F247200021CA
:101B80000160FEF789FD0546306880077FF507AFE5
:101B9000FEF782FD401B02284FF00300F4D933E723
:101BA000316F002821F001013167316F21F004010C
:101BB00031674DD0FEF770FD054641F2883700BF12
:101BC000306F800756D4FEF767FD401BB842F7D947
:101BD00017E000BF3168002821F48031316031689E
:101BE00021F4802131604FD0FEF756FD054600BF3D
:101BF000306880033FF5B5AEFEF74EFD401B64280C
:101C0000F6D9032002B0BDE8F08100BF04F11C0545
:101C10002FCD08430021CFF6FF7140EA821001EB7F
:101C2000C3316FF30F0140EA056008437060012083
:101C30003866FEF731FD0446306880013FF5E3AEBB
:101C4000FEF72AFD001B02284FF00300F4D9DBE663
:101C5000FEF722FD054641F2883700BF306F80074E
:101C600008D5FEF719FD401BB8424FF00300F5D927
:101C7000CAE600BFB8F1000F7FF497AE306C20F0D9
:101C80008050306491E600BFFEF706FD054600BFB8
:101C9000306880037FF565AEFEF7FEFC401B6428CC
:101CA0004FF00300F4D9AFE6411E0020B0EB116FF6
:101CB0001CBF012070474EF21002CEF200025160AC
:101CC0004EF62351CEF20001F0230B7007219060F5
:101CD00011607047FEE7000082B0002043F630013B
:101CE0000190C4F202010A6842F001020A600A6827
:101CF00002F001020192019A0090086840F0800011
:101D00000860086800F080000090009802B07047FA
:101D100080B541F27C5040F20801C2F20000C2F2EC
:101D20000001002200F022FD002818BFFEF7BCFBD6
:101D300041F27C5040F22801C2F20000C2F20001E0
:101D400000F072FF002818BFFEF7AEFB41F27C5096
:101D500040F2C401C2F20000C2F2000100F038FA01
:101D6000002818BFFEF7A0FB41F27C50C2F2000031
:101D700000F084FF002808BF80BDBDE88040FEF76A
:101D800093BB0000FEE70000FEE7000041F65800AC
:101D9000C2F20000FEF7ECBE704700007047000082
:101DA000FEF780BCB0B592B0002443F64000CDE908
:101DB0000A44CDE908440594CDE90344CDE9014442
:101DC0000094C4F202000168022541F080510160D4
:101DD000006800F080500090009847F200000094E6
:101DE000C4F20000016841F480410160006800F421
:101DF000804000900098012006904FF480300790BA
:101E00004FF480000D9006200E90A820CDE90F051C
:101E10000720119006A80C95FFF78AFD20B1EFF37B
:101E2000108072B6FEE700BF0F20CDE901054FF428
:101E3000A05004904FF48050059001A80521039410
:101E4000FFF78AFC20B1EFF3108072B6FEE700BF07
:101E500012B0B0BD4EF68850CEF20000016841F4D9
:101E60007001016070470000B0B5D0F8D42200EBDB
:101E70008202D2F8C0323BB301F00F058C4605EB6D
:101E8000850100EB810151F8184F64B1D0F8C8E228
:101E900005EBC5050EEB8505D5F848E0B4FBFEF56E
:101EA00005FB1E4595B10024C3F81442D2F8C402C4
:101EB000056935B1D3F8080203F504716246A847F5
:101EC00000242046B0BD00BF0320B0BD00240C603C
:101ED00061460022002300F089FE2046B0BD0000CC
:101EE000B0B50446D0F8D40204EB8000D0F8C0525C
:101EF00095B1204600F01EFDD4F8D412C5F80C02AE
:101F000004EB8101D1F8C412D5F80402CA6805F5C2
:101F1000037190470020B0BD0320B0BD70B5812192
:101F2000044600F04BFC002520460121258700F0E7
:101F300045FC20468221A4F8785100F03FFCD4F8FB
:101F4000D402E56404EB8000D0F8C01289B1D0F867
:101F5000C40240688047D4F8D40204F5307656F8BD
:101F6000200001F04DF9D4F8D40246F82050C4F80E
:101F7000BC52002070BD000010B5D0F8D41200EBA8
:101F80008100D0F8C0428CB1D0F8C41281B194F86D
:101F90000002FF280CD08B6894F801222146984754
:101FA000FF2084F80002002010BD00BF032010BDF8
:101FB000002010BD014640F2A4000A22C2F2000037
:101FC0000A807047F0B581B040F26007C2F20007A6
:101FD00004463846822100F03BFB06463846012184
:101FE00000F036FB05463846812100F031FB002E1B
:101FF0001CBF1021B171002D1CBF4021A9800028F9
:102000001CBF40218180432140F26000C2F20000E9
:10201000218001B0F0BD0000F0B581B040F2600752
:10202000C2F2000704463846822100F011FB064642
:102030003846012100F00CFB05463846812100F0AE
:1020400007FB002E1CBF1021B171002D1CBF4FF4E7
:102050000071A98000281CBF4FF4007181804321CA
:1020600040F26000C2F20000218001B0F0BD00002B
:10207000F0B581B040F26007C2F20007044638466E
:10208000822100F0E5FA06463846012100F0E0FA28
:1020900005463846812100F0DBFA002E1CBF1021D6
:1020A000B171002D1CBF4021A98000281CBF402118
:1020B0008180432140F26000C2F20000218001B023
:1020C000F0BD00002DE9F04104464FF4077001F027
:1020D00099F800284ED04FF407710546FEF73CF9F9
:1020E000D4F8D402402704EB8000C0F8C052207C12
:1020F000C4F8BC52002808BF4FF400772046812165
:1021000002223B46022600F089FC4FF001082046DF
:10211000012102223B46A4F8388000F07FFC102009
:10212000A4F84E002046822103220823A4F87881D7
:1021300000F074FCD4F8D4020027C5F8047204EB54
:102140008000D0F8C402A4F84C8000688047C5F82D
:102150001472C5F81872D5F804223AB1207C98B1EF
:1021600020460121402300F06DFC00263046BDE8EA
:10217000F08100BFD4F8D402002104EB8000C0F845
:10218000C0120220BDE8F081204601214FF4007307
:1021900000F058FC0020BDE8F081000080B5D0F8C8
:1021A000D41200EB8101D1F8C01279B190F810C0BF
:1021B000D1F8042240230121BCF1000F08BF4FF4E5
:1021C000007300F03FFC002080BD00BF032080BDF5
:1021D00000290FBF0320D0F8D42200EB8200C0F802
:1021E000C41218BF00207047D0F8D42200EB820040
:1021F000D0F8C00200280EBF0320C0F8041200204F
:1022000070470000D0F8D43200EB8300D0F8C00251
:1022100000280FBF0320C0F80812C0F810220020C9
:102220007047000070B582B00446D0F8D4020D4665
:1022300004EB8000D0F8C06200218DF80710ADF8E3
:102240000410CEB1297811F0600219D0202A5FD194
:10225000EA88002A2CD0090636D46878314686F8F8
:1022600000022046402A28BF402286F8012200F0C2
:10227000A1F8002618E000BF0326304602B070BD6A
:1022800068780B2844D80026DFE800F0060E4242AA
:102290004242424242422C3A94F89C02032837D1EF
:1022A00001A92046022225E0304602B070BD00BFE1
:1022B000D0F8C4022946836868780022002698472F
:1022C000304602B070BD00BFD0F8C402314683680A
:1022D00068789847EA8820463146072A28BF0722AF
:1022E00008E000BF94F89C02032811D10DF107010A
:1022F0002046012200F078F80026304602B070BD7A
:1023000094F89C02032803D10026304602B070BD29
:102310002046294600F042F80326304602B070BD40
:1023200080B5D0F8D41200EB8101D1F8C0223AB1C7
:10233000D2F8141200294FF0010103D0084680BDE5
:10234000032080BDC2F81412D2F81032D2F808224D
:102350008121C36200F04AFC0021084680BD0000D4
:1023600080B5D0F8B82252689047002818BF0320E3
:1023700080BD0000002070470020704780B51346E4
:102380000A46002100F05EFB002080BD80B51346A8
:102390000A46002100F02AFC002080BD10B58021F3
:1023A000044600F0F5FB20460021BDE8104000F097
:1023B000EFBB000080B513460A460321C0F8941213
:1023C0000021C0E9563300F03DFB002080BD000035
:1023D00080B50521C0F8941200210022002300F0EE
:1023E00031FB002080BD000080B513460A46022163
:1023F000C0F894120021C0E9063300F0F7FB00207A
:1024000080BD000080B50421C0F894120021002294
:10241000002300F0EBFB002080BD000010B540F26F
:102420005C14C2F200040A4602A0214600F030F912
:10243000204610BD43444320436F6E666967000029
:1024400040F2B0001222C2F200000A807047000081
:1024500010B540F25C14C2F200040A4602A0214604
:1024600000F016F9204610BD43444320496E7465C0
:10247000726661636500000040F2D8000422C2F277
:1024800000000A807047000010B540F25C14C2F2F0
:1024900000040A4602A0214600F0FAF8204610BDCA
:1024A00053544D6963726F656C656374726F6E69C6
:1024B0006373000010B540F25C14C2F200040A46D7
:1024C00002A0214600F0E4F8204610BD53544D33DD
:1024D00032205669727475616C20436F6D506F7253
:1024E00074000000B0B547F61020C1F6FF70026816
:1024F00083684FF01A0C9B18A1F800C000F0A3806D
:102500004FF0370C1A0F0CEB13714068B3F1204FEA
:1025100038BF02F1300140F2DC02C2F200029170D9
:1025200019014FF0000E0CEB117582F803E0C3F3B4
:102530000364B1F1204F38BF04F130051902157161
:102540000CEB117582F805E0C3F30354B1F1204F91
:1025500038BF04F13005190395710CEB117582F841
:1025600007E0C3F30344B1F1204F38BF04F1300555
:10257000190415720CEB117582F809E0C3F30334EA
:10258000B1F1204F38BF04F13005190595720CEBFD
:10259000117582F80BE0C3F30324B1F1204F38BF6B
:1025A00004F1300519061573C3F303140CEB117510
:1025B000B1F1204F4FEA037103F00F0382F80DE0F1
:1025C00038BF04F1300503F13704957382F80FE04A
:1025D000B1F1204F38BF03F13004010F0CEB107341
:1025E000147482F811E0B0F1204F38BF01F13003CC
:1025F00001010CEB1174937482F813E0C0F30363D0
:10260000B1F1204F38BF03F1300401021475C0F35B
:1026100003530CEB1174B1F1204F4FEA003182F8F3
:1026200015E038BF03F130040CEB1173947582F898
:1026300017E0C0F30340B1F1204F38BF00F1300381
:10264000137682F819E040F2DC00C2F20000B0BD5F
:1026500080B5B0F802C090F800E0F44516D9734692
:1026600050FA8EF04278052A0BD106E090F800E08F
:1026700050FA8EF04278052A03D182788A4208BF48
:1026800080BD53FA8EF39AB26245EFD3002080BD2D
:1026900010B5002868D00378B3B100F1020E4FF0F6
:1026A000000C00BF1EF8013C93B19EF800309BB1B6
:1026B0009EF80130A3B19EF802300CF1040C002BFF
:1026C0000EF1040EEED10DE04FF0000C0AE000BF59
:1026D0004CF0010C06E000BF4CF0020C02E000BF21
:1026E0004CF0030C5FFA8CFC022303EB4C031380C9
:1026F00003220B704A7090F800E0BEF1000F33D057
:10270000841C02224FF0000C1AE000BF101DC0B262
:102710000B5440F0010001F800C06378002B08BFA3
:1027200010BD901DC0B20B5440F0010001F800C074
:1027300094F802E00832BEF1000F04F1040413D053
:10274000D3B201F803E043F0010301F803C014F829
:10275000013C4BB1901CC0B20B5440F0010001F899
:1027600000C02378002BD1D110BD0000002804BF89
:10277000032070470023C0F8B832C0F8C4320029E3
:10278000C0F8D03218BFC0F8B412012180F89C12F2
:10279000027000F0D3B8000080B5D0F8C802FEF790
:1027A000F7F840F20032C100C0F2013222FA01F122
:1027B000032888BF0321C8B280BD000080B5D0F8CF
:1027C000C802FEF7BFF840F20032C100C0F2013289
:1027D00022FA01F1032888BF0321C8B280BD00009E
:1027E000B0B5044691B194F89C02032851D1D4F8B5
:1027F000B8024269002A4CD00020C4F8D402204616
:102800009047002808BF0020B0BD00BFD4F8940254
:10281000022837D1D4E9070188420DD9431A20464E
:1028200011461A46E361FFF7B1FD20460021002260
:10283000002300F007F925E010D1A16981420DD3F2
:10284000D4F89802814209D22046002100220025B6
:10285000FFF79CFDC4F89852E7E700BF94F89C028C
:10286000032808D1D4F8B802C16821B10020C4F807
:10287000D402204688472046802100F089F920466E
:10288000FFF7A6FD94F8A00200281CBF002084F8E2
:10289000A0020020B0BD000010B5044681B194F83C
:1028A0009C0203281FD1D4F8B8028269DAB1002053
:1028B000C4F8D40220469047002808BF002010BD6D
:1028C000D4F8940203280ED1D4E9570398420DD9C5
:1028D000C01AC4F85C01984238BF0346204611462E
:1028E0001A46FFF74BFD002010BD00BF94F89C0274
:1028F000032808D1D4F8B802016921B10020C4F836
:10290000D402204688472046FFF77CFD002010BDFA
:102910000020704780B5012180F89C12D0F8B812D1
:1029200031B14A6801799047002818BF032080BD63
:10293000002080BDD0F8C802FEF75CB810B5017861
:1029400011B1002010BD00BF41F65801C2F20001D4
:10295000C1F80805C0F8C8124FF0A0400422C1E930
:10296000000202200022C1E90302C1E90602084672
:10297000C1E90822C1E90B22FEF79AFD002818BF21
:10298000FDF792FD41F65804C2F200042046802172
:10299000FDF740FF204600214022FDF73FFF204683
:1029A00001218022FDF73AFF002010BDD0F8C802B7
:1029B00001F07F0202EBC20200EB820000F13E0256
:1029C000090658BF00F27E221078704780B5D0F813
:1029D000D42200EB8202D2F8B8224AB190F89C329D
:1029E000032B02D1126A02B19047002080BD00BFC4
:1029F000032080BD80B5D0F8D42200EB8202D2F84B
:102A0000B8224AB190F89C32032B02D1526A02B12B
:102A10009047002080BD00BF032080BD80B5944654
:102A2000D0F8C8021A466346FDF7EEFF40F20032C6
:102A3000C100C0F2013222FA01F1032888BF03214C
:102A4000C8B280BD80B5D0F8C802FEF70DF840F2DC
:102A50000032C100C0F2013222FA01F1032888BF1E
:102A60000321C8B280BD0000F0B581B00126002569
:102A700080F89C62C0F8945204464560D0F8B802D1
:102A8000C4F8A45284F8A05258B1426842B120461A
:102A9000002190470546002818BF032501E000BF2C
:102AA000002520460021002240234027FFF7B6FFE3
:102AB0002046802100224023A4F86461C4F860719C
:102AC000FFF7ACFFA6842846276201B0F0BD0000E6
:102AD00090F89C12042904BF90F89D1280F89C1273
:102AE0000020704780B590F89C12032906D1D0F8D9
:102AF000B81219B1C969002918BF8847002080BDE4
:102B0000024600201174704780B5D0F8C802FEF765
:102B1000CDFD40F20032C100C0F2013222FA01F1D3
:102B2000032888BF0321C8B280BD0000B0B500F201
:102B3000AA250446284600F06BF80120C4F8940248
:102B400094F8AA02B4F8B02200F01F010229C4F8D8
:102B5000982209D001290DD091B920462946BDE817
:102B6000B04000F08DB800BF20462946BDE8B04017
:102B700000F040BA20462946BDE8B04000F0F6BA61
:102B800000F080012046BDE8B04000F001B8000030
:102B900080B5D0F8C802FDF78DFF40F20032C100C9
:102BA000C0F2013222FA01F1032888BF0321C8B222
:102BB00080BD000080B5D0F8C802FEF793FD40F25A
:102BC0000032C100C0F2013222FA01F1032888BFAD
:102BD0000321C8B280BD0000014690F89C02042287
:102BE00081F89D02002081F89C22704780B5D0F8C2
:102BF000C802FDF79BFF40F20032C100C0F2013273
:102C000022FA01F1032888BF0321C8B280BD000069
:102C10000A7802704A7842704A8842808A888280A4
:102C2000C988C1807047000010B582B004460020FA
:102C3000ADF80600B1B1D4F8D42204F52E70C4F872
:102C4000B81250F82200C16A21B10DF10600884780
:102C5000C4F8D002D4F8D8020130C4F8D802002059
:102C600002B010BD032002B010BD0000D0F8B822A1
:102C7000002A04BF0020704712681047FFF79ABF70
:102C8000B0B582B00D460978044611F0600111D04C
:102C9000402901D020292FD1D4F8D402294604EBB1
:102CA0008000D0F8B8028268204602B0BDE8B0408B
:102CB000104700BF6878092800F2D080DFE800F0F4
:102CC0000628CE3ACE4666CE7E9200BF94F89C028D
:102CD0000138022800F2C280E888022840F0BE8055
:102CE000D4F8A4020322002808BF0122214641F89B
:102CF0000C2F2046022263E120468021FFF748FF87
:102D0000204600210025FFF743FF284602B0B0BD52
:102D100094F89C020138022800F2A08068880025FF
:102D20000128F2D12046C4F8A452FFF76BFB2846D5
:102D300002B0B0BD6888022800F08680012840F00B
:102D40008D800120C4F8A40240E100BFA8880028BB
:102D500040F08480E888002840F0808068887F28E0
:102D600000F27C8094F89C12032900F07780C5B2B1
:102D700084F89E0220462946FFF7C6FE2046FFF74C
:102D800041FB002D0CBF01200220EFE068884FF0CE
:102D9000FF3101EB102100220629ADF8062000F2D8
:102DA0001D81DFE811F00700670075001B011B01A2
:102DB00083008F00D4F8B4020268F1E0E8880128AB
:102DC0004CD194F89C02411E022941D20025214693
:102DD00041F8085F20460122FFF706FB284602B0B3
:102DE000B0BD00BF688840F25815C2F2000510F06F
:102DF000FE0F28700CD020468021FFF7C9FE204628
:102E00000021FFF7C5FE0325284602B0B0BD00BF74
:102E100094F89C22C1B2032A62D0022A40F0828038
:102E2000002900F0D38020466160FFF71FFF0028D3
:102E300000F09880054620468021FFF7A9FE204635
:102E40000021FFF7A5FE67E0687984F8A002BDE0E5
:102E5000032803D1211D20460122B1E02046802114
:102E6000FFF796FE204600210025FFF791FE284639
:102E700002B0B0BD217CD4F8B80200290CBF816A31
:102E8000C16A0DF1060088470146022026E000BF16
:102E9000C0B2052800F2A280DFE800F0046E72766E
:102EA0007A7E00BFD4F8B402426878E0207C002823
:102EB00040F09480D4F8B802416B0DF106008847C9
:102EC00072E000BF207C002840F08880D4F8B8026F
:102ED000016B0DF10600884701460720487064E049
:102EE00081B36068884271D0C1B22046FFF738FADA
:102EF000297820466160FFF7B9FE002866D00546B4
:102F000020468021FFF744FE20460021FFF740FEC7
:102F100021792046FFF724FA022084F89C022846F3
:102F200002B0B0BD20468021FFF732FE20460021CE
:102F3000FFF72EFE29782046FFF712FA03252846D0
:102F400002B0B0BD022084F89C02616020460021DE
:102F50000025FFF705FA2046FFF754FA284602B08D
:102F6000B0BD00BF2046FFF74DFA032084F89C0255
:102F70000025284602B0B0BDD4F8B40282680EE045
:102F8000D4F8B402C2680AE0D4F8B402026906E0D8
:102F9000D4F8B402426902E0D4F8B4028269EAB11A
:102FA000207C0DF1060190470146EA8872B1BDF818
:102FB000060098B1904238BF02462046ADF8062080
:102FC000FFF712FA0025284602B0B0BD2046FFF7F1
:102FD00019FA0025284602B0B0BD00BF2046802166
:102FE000FFF7D6FD20460021FFF7D2FD0025284639
:102FF00002B0B0BD70B50E460978357911F06001A8
:1030000004460BD0402902D0202940F07D80204684
:103010002946FFF7AFF9D8B1002070BD707828B30A
:1030200001283DD003286FD194F89C0203283BD19E
:10303000708840B915F07F0005D0F08818B9204697
:103040002946FFF7A5FD2046FFF7DCF9002070BDFB
:10305000D4F8B80282680020002AC4F8D402DBD079
:1030600020463146BDE87040104700BF94F89C02EE
:10307000032827D0022808BF5FEA456044D105F045
:103080007F0000EB800004EB800000F114012A06B1
:1030900058BF00F5AA7100200860204660E000BF1C
:1030A00094F89C02032839D002282DD168062BD031
:1030B00020462946FFF76CFD20468021FFF768FD7A
:1030C000002070BD05F00F0101EB810115F08000BB
:1030D00004EB810114BF898CB1F86411A1B105F032
:1030E0007F0101EB810104EB810101F1140600284D
:1030F00008BF01F5AA7668062ED020462946FFF7BC
:1031000055FC48B3012028E020468021FFF740FD10
:1031100020460021FFF73CFD002070BD708800288C
:103120007FF47AAF680603D020462946FFF734FBC8
:103130002046FFF767F920462946FFF71BF90028CC
:103140007FF46AAFD4F8B80282680020002AC4F87D
:10315000D4027FF485AF5FE700203060204631461F
:103160000222FFF741F9002070BD0000B0B50D4606
:103170000978044611F0600118BF402914D194F871
:103180009C020138022803D8A88810F0FE0F19D03D
:1031900020468021FFF7FCFC204600210025FFF798
:1031A000F7FC2846B0BD00BF2029E8D0204680218A
:1031B000FFF7EEFC204600210025FFF7E9FC28463A
:1031C000B0BD00BFC1B22046FFF7D6F810B1032052
:1031D000B0BD00BFD4F8B8028268002AF7D0002042
:1031E000C4F8D402204629469047E98805460029BC
:1031F00008BF002DE3D12046FFF704F90020B0BD41
:103200007047000040F25C30C2F2000070470000DE
:1032100080B54B780A78012B02F00F031CD14FF0D8
:10322000010CD0F81CE80CFA03F343EA0E03C0F8D3
:103230001C3800EB4210D0F800391B042BD4CB68AB
:1032400000F5106091F804C001686FF3DF2343EAD2
:103250008C4341EA825118E04FF4803CD0F81CE8DE
:103260000CFA03F343EA0E03C0F81C3800EB4210DB
:10327000D0F8002B12040ED4CA6800F5306009792A
:103280006FF3DF22036842EA8141194341F0805124
:1032900041F400410160002080BD00000146D0F8EB
:1032A000000940F2FF729043C1F80009D1F8040808
:1032B00040F480720020C1F80428704782B004995D
:1032C000DDF808C0012940F64051C0F203016FD17A
:1032D000826B4FF6BF7322F480328263C268CFF6EE
:1032E000BD731A40C260C2680B9B22F44012012BCE
:1032F000C26003D1C26842F48012C2600022009210
:10330000009A01320092009A8A4200F2A980026972
:10331000002A1ED4009A01320092009A8A4200F2DA
:103320009F800269002A14D4009A01320092009A08
:103330008A4200F295800269002A0AD4009A01327A
:103340000092009A8A4200F28B800269B2F1FF3F3C
:10335000D6DC00220092026942F001020261009A6A
:1033600001320092009A8A427AD80269D2071AD0B2
:10337000009A01320092009A8A4271D80269D207FB
:1033800011D0009A01320092009A8A4268D80269EC
:10339000D20708D0009A01320092009A8A425FD880
:1033A0000269D207DBD10021BCF1010F72D169E0C3
:1033B000C268089B42F04002C26000220192019A5A
:1033C00001320192019A8A4250D80269002A1BD424
:1033D000019A01320192019A8A4247D80269002A71
:1033E00012D4019A01320192019A8A423ED80269AE
:1033F000002A09D4019A01320192019A8A4235D8F1
:103400000269B2F1FF3FDADC00220192026942F068
:1034100001020261019A01320192019A8A4225D881
:103420000269D2071AD0019A01320192019A8A42A6
:103430001CD80269D20711D0019A01320192019A77
:103440008A4213D80269D20708D0019A0132019248
:10345000019A8A420AD80269D207DBD1002106E02C
:103460000321BCF1010F15D10CE000BF0321826BD9
:10347000002B14BF22F4803242F480328263BCF10C
:10348000010F07D1826842F006028260826842F032
:1034900020028260084602B07047000080B54B7879
:1034A0000A78012B2AD100EB4211D1F8003947F6F6
:1034B000000CCEF6334C01F51061002B4FF0010EDD
:1034C00007D50B6843F000630B600B6843F0804343
:1034D0000B6002F00F02D0F83C380EFA02F2934370
:1034E000C0F83C38D0F81C3823EA0202C0F81C2887
:1034F000086800EA0C0200200A6080BD00EB42135D
:1035000003F53061D3F800EB47F60003CEF6334302
:1035100003F1707CBEF1FF3F4FF4803ED9DCD0E771
:103520000146D0F8000E20F00300C1F8000ED1F8DB
:10353000040820F002020020C1F8042870470000AF
:103540000146D0F8000E20F00300C1F8000ED1F8BB
:10355000040840F002020020C1F80428704700006F
:103560002DE9F04F83B0DDF84CE00E9F0022BEF154
:10357000000FC0F80421C0F80821C0F80C21C0F8E1
:103580001021C0F81421C0F81821C0F81C21C0F87F
:103590002021C0F82421C0F82821C0F82C21C0F82F
:1035A0003021C0F83421C0F83821C0F83C210BD0BC
:1035B000826B00F5006A22F400128263826B42F48F
:1035C0000022826314E000BFD0F8042800F5006AEE
:1035D00042F00202C0F80428826B42F400128263B7
:1035E000826B22F400228263866B26F48026866337
:1035F0000026C0F8006EDAF80060012FCAF80060FB
:1036000006D1DAF80070002B18BF47F0010703E07D
:10361000DAF8003043F00307DDF83090DDF83C8045
:1036200040F64055C0F203050023CAF8007001932C
:10363000019B01330193019BAB4249D80369002BE5
:103640001BD4019B01330193019BAB4240D803691A
:10365000002B12D4019B01330193019BAB4237D85D
:103660000369002B09D4019B01330193019BAB42F9
:103670002ED80369B3F1FF3FDADC002301934FF446
:1036800084630361019B01330193019BAB421FD80B
:1036900003699B061AD5019B01330193019BAB4241
:1036A00016D803699B0611D5019B01330193019B39
:1036B000AB420DD803699B0608D5019B01330193EA
:1036C000019BAB4204D803699B06DBD4002400E0D5
:1036D000012400230293029B01330293029BAB421D
:1036E00048D80369002B1BD4029B01330293029B31
:1036F000AB423FD80369002B12D4029B01330293E3
:10370000029BAB4236D80369002B09D4029B0133DC
:103710000293029BAB422DD80369B3F1FF3FDADC81
:103720000023029310230361029B01330293029B47
:10373000AB421FD80369DB061DD5029B0133029300
:10374000029BAB4216D80369DB0614D5029B0133FA
:103750000293029BAB420DD80369DB060BD5029B9B
:1037600001330293029BAB4204D80369DB06DBD42E
:1037700001E000BF01244FF0000B0029CAF810B08F
:10378000CAF814B0CAF81CB000F0FE8000F510674B
:103790003B684FF0006505EA13134FF67F324E1E6B
:1037A0003B60C7F810B0BA6073D08B1E032B06F0D5
:1037B0000302009404D22024002A42D162E000BF18
:1037C00026F003034FF0000E4FF090484FF67F3C79
:1037D0004FF0000900EB0904D4F82059043B08EA33
:1037E000E575C4F82059C4F830E9C4F828C9D4F8FC
:1037F000405909F1800908EAE575C4F84059C4F850
:1038000050E9C4F848C9D4F8605908EAE575C4F825
:103810006059C4F870E9C4F868C9D4F8805908EA56
:10382000E575C4F88059C4F890E9C4F888C9D1D1C5
:1038300009F12004DDF84CE0DDF83C80DDF8309043
:1038400002B33D594FF0904C0CEAE5753B193D51E0
:1038500000244FF67F37012A1C619F6012D01D6A39
:10386000022A0CEAE5751D621C639F620AD01F6C78
:103870004FF0904505EAE7771F6400271F654FF674
:103880007F379F64009C00294FF67F324FF0006520
:103890007AD0D0F8003B002E05EA1313C0F8003BA5
:1038A0004FF00003C0F8103BC0F8082B6CD0023971
:1038B000032906F0030C05D22023BCF1000F3ED1F2
:1038C00062E000BF009426F0030300274FF090460B
:1038D0004FF67F34002100BF4518D5F8202B043B5C
:1038E00006EAE272C5F8202BC5F8307BC5F8284BF4
:1038F000D5F8402B01F1800106EAE272C5F8402BB1
:10390000C5F8507BC5F8484BD5F8602B06EAE27243
:10391000C5F8602BC5F8707BC5F8684BD5F8802BCF
:1039200006EAE272C5F8802BC5F8907BC5F8884B93
:10393000D2D1009C01F12003BCF1000F24D000F58E
:103940003062D6584FF0904707EAE676D118D65045
:1039500000264FF67F33BCF1010F0E618B6013D050
:103960000A6ABCF1020F07EAE2720A620E638B6216
:103970000AD00A6C4FF0904303EAE2720A64002214
:103980000A654FF67F328A64DAF81010B9F1000F39
:1039900021F48071CAF810106FF08041C0F818B09F
:1039A000416103D1816941F010018161816943F670
:1039B0000002C8F23C021143B8F1000F816103D04C
:1039C000816941F008018161BEF1010F05D1816972
:1039D00041F0804141F004018161204603B0BDE81F
:1039E000F08F00000146806820F0010200208A600C
:1039F00070470000F0B54B7891F800C0012B27D13B
:103A00008C6900EB4C1E00264FF6FF75DEF810792E
:103A1000CFF6F876CEF20705002C0EF5106349D0EC
:103A20003E401E611E692E401E61CE6805F10055A4
:103A3000B44284BF8E6134461E69254046F4002698
:103A40001E611E693543012A1D6141D1486926E086
:103A500000EB4C13D3F8100B6FF31200C3F8100BEC
:103A6000D3F8107B4FF6FF706FF3DC47C3F8107B81
:103A70008F69CE68002F03F5306318BF8E61CE6169
:103A80001F69CEF2070047F400271F6100F10050C4
:103A90001F6930403843012A186103D108690028A2
:103AA00018BF58614FF0044118680843186000209F
:103AB000F0BD00BF07EA05041C611C6944F4002442
:103AC0001C611C6904EA06050024012A1D61BDD0A1
:103AD000DEF80019002C41F00441CEF80019E6D0C0
:103AE0000CF00F01012202FA01F100F63403DBE7CA
:103AF000D0F840C043F20B03C4F654739C4503D383
:103B0000D0F8003B002B1ED40023C0F8103BD0F8A7
:103B1000103B012943F40023C0F8103BD0F8103BC0
:103B200043F01803C0F8103BD0F8103B43F0C043FB
:103B3000C0F8103B07D1C0F8142BD0F8001B41F09F
:103B40008021C0F8001B0020704700004B780A78E5
:103B5000012B00EB42100DD1D0F8002922F4001205
:103B6000C0F80029097901F0FE01022913D100F5FE
:103B700010600CE0D0F8002B22F40012C0F8002BEB
:103B8000097901F0FE01022905D100F530600168D4
:103B900041F0805101600020704700004B780A78A6
:103BA000012B00EB421007D1D0F80019002900F5D5
:103BB000106107D50BE000BFD0F8001B002900F50D
:103BC000306104D41AB1086820F0804008600868A9
:103BD00040F4001200200A6070470000F0B54B78F6
:103BE00091F800C0012B35D1D1F818E000EB4C144E
:103BF00000254FF6FF76D4F81079CFF6F875CEF29F
:103C00000706BEF1000F04F510634DD03D401D6165
:103C10001D6935401D61CD681F690EEB0506013E2B
:103C2000B6FBF5F50026C1F6F87606EAC5453D4334
:103C30001D6175461E696FF3DF4535431D610D79C2
:103C4000012D3AD11D6925F0C0451D611D6945F062
:103C5000005531E000EB4C13D3F8107B4FF6FF7C9E
:103C60006FF31207C3F8107BD3F8107BC0F2070C78
:103C70006FF3DC47C3F8107B8F69CE68002F03F524
:103C8000306349D03744013FB7FBF6F7BDB26E430E
:103C9000CE610025C1F6F8751C6905EAC7472743C0
:103CA00006EA0C061F613EE03E401E611E6946F4B6
:103CB00000261E611E6935401D61012A12D14A6924
:103CC000002A18BFC4F814290979012943D1D0F872
:103CD0000818D4F80009C9054CBF40F0805040F0E6
:103CE000005037E000F510634FEA4C141D5945F0C1
:103CF00004451D510D79012D34D1D0F80858E658EE
:103D0000ED054FF0805558BF4FF000553543E55055
:103D1000A2B30020F0BD00BF1F6906EA0C063743BE
:103D20001F614FF400261F69012A47EA06071F6139
:103D300003D10A69002A18BF5A61097901290AD1F9
:103D4000D0F808081968C0054FF0805058BF4FF0F0
:103D50000050084318604FF0044118680843186089
:103D60000020F0BDBEF1000FD3D00CF00F010122F6
:103D700002FA01F100F63403EFE700BF5FEA0E42FA
:103D8000C7D0032313FA8EF64FF0FF33096903EB14
:103D9000960300F580504FEA0C32032BC6F38103E3
:103DA0000ED3B70827F003040F68043C17504F6880
:103DB00017508F681750CF6801F110011750F3D1D9
:103DC000002BA6D00F68012B1750A2D04F68022BF2
:103DD00017509ED0896811500020F0BD81B000229C
:103DE00000924A78012A3BD10A7800F5106152010D
:103DF0008858B0F1FF3F3BDC505842F2107340F05E
:103E000000605050505840F08040505000980130B1
:103E100000900098984265D85058B0F1FF3F27DCD9
:103E2000009801300090009898425BD85058B0F14B
:103E3000FF3F1DDC0098013000900098984251D857
:103E40005058B0F1FF3F13DC00980130009000980B
:103E5000984247D8505800284FF00000D6D43EE092
:103E60000A7800F5306152018858B0F1FF3F03DD58
:103E7000002001B0704700BF505842F2107340F06C
:103E800000605050505840F0804050500098013031
:103E900000900098984225D85058B0F1FF3FE7DCD9
:103EA000009801300090009898421BD85058B0F10B
:103EB000FF3FDDDC0098013000900098984211D857
:103EC0005058B0F1FF3FD3DC0098013000900098CB
:103ED000984207D8505800284FF00000D6D401B0BF
:103EE000704700BF012001B07047000001468068A4
:103EF00040F0010200208A607047000081B040F667
:103F00004052C0F2030200230093009B0133009350
:103F1000009B93424AD80369002B1BD4009B0133BA
:103F20000093009B934241D80369002B12D4009B5D
:103F300001330093009B934238D80369002B09D4C6
:103F4000009B01330093009B93422FD80369B3F188
:103F5000FF3FDADC890100232031009301610099E1
:103F6000013100910099914220D8016989061AD542
:103F70000099013100910099914217D80169890691
:103F800011D5009901310091009991420ED8016933
:103F9000890608D50099013100910099914205D810
:103FA00001698906DBD4002001B07047032001B00D
:103FB00070470000D0F8080800F0060180074FF0B5
:103FC000020058BF0F20002908BF084670470000B4
:103FD000406900F001007047D0F81818D0F81C08AC
:103FE000084080B270470000D0F81818D0F81C08BC
:103FF0000840000C70470000D0F810C8D0F83438E2
:1040000001F00F0223FA02F2D20100EB4110D2B20A
:10401000D0F8080942EA0C010840704700EB411152
:10402000D1F8081BD0F8140808407047416980692E
:104030000840704710B5930802F0030E2CD05A1EAA
:10404000032A03F0030C0FD323F003034FF4805231
:104050008458043B0C6084584C6084588C608458AD
:10406000CC6001F11001F3D1BCF1000F14D04FF47A
:10407000805284580B46BCF1010F43F8044B05D124
:104080001946BEF1000F0AD11EE000BF8258BCF1F4
:10409000020F4A601AD10831BEF1000F14D04FF45C
:1040A000805280580A46BEF1010F02F8010B04BF8E
:1040B000104610BD020ABEF1020F4A7004BF881CF0
:1040C00010BD000C88700331084610BD4FF48052BB
:1040D00082588A600C31BEF1000FE0D1F4E7000095
:1040E000B0B50446C06820F0C040E06091B101293D
:1040F00026D1E068002540F00050E0600120FCF788
:10410000D9F96069C00705F1010014D1312D0546C8
:10411000F4D310E0E068002540F08040E06000BF8C
:104120000120FCF7C7F96069C00705F1010002D062
:10413000312D0546F4D33238B0FA80F04009B0BDD5
:104140000120B0BD0246D0F8000801F07F0120F444
:10415000FE60C2F80008D2F8000840EA0111002011
:10416000C2F8001870470000022A02460ED145F23C
:104170004030CFF6277043F200530844C0F20C03DE
:1041800098420FD24FF4705002E000BF4FF410502D
:10419000D16821F47051D160D16801430020D16011
:1041A000704700BF41F64060CFF61B7044F24023D9
:1041B0000844C0F20F03984202D24FF46050E7E780
:1041C000A1F5740044F68073A0F51050C0F21203FC
:1041D000984203D24FF45050DAE700BFA1F1837048
:1041E0004DF22063A0F5E740C0F21303984203D2DA
:1041F0004FF44050CCE700BF4BF26060CFF6E56073
:104200004EF260330844C0F21603984202D24FF4D3
:104210003050BDE74DF20030CFF6CE6047F240732C
:104220000844C0F21B03984202D24FF42050AFE77B
:1042300045F6C030CFF6B36049F2C0130844C0F26F
:104240002103984202D24FF41050A1E7A1F1B770B8
:1042500047F22053A0F55850C0F23803984203D2D9
:104260004FF4005094E700BF45F2E040CFF65960AC
:1042700049F6E0430144C0F241034FF4C050994273
:1042800038BF4FF4E05083E710B5DDF808C0BCF14B
:10429000000F01D0002010BD002BFBD003F1030E56
:1042A0004FF0FF3303EB9E0300F580541203032B02
:1042B000CEF3810C10D34FEA9E0323F0030300BF1B
:1042C0000868043B10514868105188681051C8684C
:1042D00001F110011051F3D1BCF1000FDAD00868E0
:1042E000BCF1010F1051D5D04868BCF1020F10513C
:1042F0001CBF88681051002010BD0000FEE70000C0
:10430000FCF7DEF9FDF74EFDFDF7E6FCFDF700FDDD
:10431000FEE7F1EE100A4FF6FF71C0F2C03120EA5D
:10432000010040F04070E1EE100A7047000000000C
:1043300000000000010203040607080960430008AA
:1043400000000020F8000000C401000858440008E4
:10435000F8000020705C0000E00100080000000090
:10436000010000001000000041240008792400082A
:1043700089240008B5240008E52400081D2400084D
:10438000512400080024F400C52000081D1F000867
:104390002522000800000000791F0008691E00089F
:1043A000E11E000800000000000000000000000006
:1043B00019200008C51F000871200008B51F00085B
:1043C00009024300020100C0320904000001020298
:1043D000010005240010010524010001042402024B
:1043E00005240600010705820308001009040100E6
:1043F000020A0000000705010240000007058102D3
:10440000400000000A060002000000400100000019
:104410001201000202020040830440570002010220
:10442000030100002D0400082904000825040008E9
:1044300059040008A1040008040309041A03000039
:10444000000000000000000000000000000000006C
:08445000000000000000000064
:040000050800018965
:00000001FF
